{
  "contracts/CoreLoanPlatform.sol": {
    "CoreLoanPlatform": {
      "abi": [
        {
          "inputs": [],
          "name": "borrowableRatio",
          "outputs": [
            {
              "internalType": "uint256",
              "name": "",
              "type": "uint256"
            }
          ],
          "stateMutability": "view",
          "type": "function"
        },
        {
          "inputs": [],
          "name": "collateralRatio",
          "outputs": [
            {
              "internalType": "uint256",
              "name": "",
              "type": "uint256"
            }
          ],
          "stateMutability": "view",
          "type": "function"
        },
        {
          "inputs": [],
          "name": "interestRate",
          "outputs": [
            {
              "internalType": "uint256",
              "name": "",
              "type": "uint256"
            }
          ],
          "stateMutability": "view",
          "type": "function"
        },
        {
          "inputs": [],
          "name": "loanDuration",
          "outputs": [
            {
              "internalType": "uint256",
              "name": "",
              "type": "uint256"
            }
          ],
          "stateMutability": "view",
          "type": "function"
        }
      ],
      "evm": {
        "bytecode": {
          "linkReferences": {},
          "object": "608060405260966000556005600155605060025562278d006003556000600455600060055534801561003057600080fd5b5060b38061003f6000396000f3fe6080604052348015600f57600080fd5b506004361060465760003560e01c80637218d12814604b5780637c3a00fd146065578063b4eae1cb14606d578063f5521bf1146075575b600080fd5b605360025481565b60405190815260200160405180910390f35b605360015481565b605360005481565b60536003548156fea26469706673582212203f42282bb9e98c3d5c6020c5d12358df8b26cde1b6620781e257a7083ab0adb564736f6c63430008180033",
          "opcodes": "PUSH1 0x80 PUSH1 0x40 MSTORE PUSH1 0x96 PUSH1 0x0 SSTORE PUSH1 0x5 PUSH1 0x1 SSTORE PUSH1 0x50 PUSH1 0x2 SSTORE PUSH3 0x278D00 PUSH1 0x3 SSTORE PUSH1 0x0 PUSH1 0x4 SSTORE PUSH1 0x0 PUSH1 0x5 SSTORE CALLVALUE DUP1 ISZERO PUSH2 0x30 JUMPI PUSH1 0x0 DUP1 REVERT JUMPDEST POP PUSH1 0xB3 DUP1 PUSH2 0x3F PUSH1 0x0 CODECOPY PUSH1 0x0 RETURN INVALID PUSH1 0x80 PUSH1 0x40 MSTORE CALLVALUE DUP1 ISZERO PUSH1 0xF JUMPI PUSH1 0x0 DUP1 REVERT JUMPDEST POP PUSH1 0x4 CALLDATASIZE LT PUSH1 0x46 JUMPI PUSH1 0x0 CALLDATALOAD PUSH1 0xE0 SHR DUP1 PUSH4 0x7218D128 EQ PUSH1 0x4B JUMPI DUP1 PUSH4 0x7C3A00FD EQ PUSH1 0x65 JUMPI DUP1 PUSH4 0xB4EAE1CB EQ PUSH1 0x6D JUMPI DUP1 PUSH4 0xF5521BF1 EQ PUSH1 0x75 JUMPI JUMPDEST PUSH1 0x0 DUP1 REVERT JUMPDEST PUSH1 0x53 PUSH1 0x2 SLOAD DUP2 JUMP JUMPDEST PUSH1 0x40 MLOAD SWAP1 DUP2 MSTORE PUSH1 0x20 ADD PUSH1 0x40 MLOAD DUP1 SWAP2 SUB SWAP1 RETURN JUMPDEST PUSH1 0x53 PUSH1 0x1 SLOAD DUP2 JUMP JUMPDEST PUSH1 0x53 PUSH1 0x0 SLOAD DUP2 JUMP JUMPDEST PUSH1 0x53 PUSH1 0x3 SLOAD DUP2 JUMP INVALID LOG2 PUSH5 0x6970667358 0x22 SLT KECCAK256 EXTCODEHASH TIMESTAMP 0x28 0x2B 0xB9 0xE9 DUP13 RETURNDATASIZE TLOAD PUSH1 0x20 0xC5 0xD1 0x23 PC 0xDF DUP12 0x26 0xCD 0xE1 0xB6 PUSH3 0x781E2 JUMPI 0xA7 ADDMOD GASPRICE 0xB0 0xAD 0xB5 PUSH5 0x736F6C6343 STOP ADDMOD XOR STOP CALLER "
        },
        "methodIdentifiers": {
          "borrowableRatio()": "7218d128",
          "collateralRatio()": "b4eae1cb",
          "interestRate()": "7c3a00fd",
          "loanDuration()": "f5521bf1"
        }
      }
    }
  }
}