{
  "contracts/CoreLoanPlatform.sol": {
    "CoreLoanPlatform": {
      "abi": [
        {
          "inputs": [],
          "name": "BTC",
          "outputs": [
            {
              "internalType": "contract IERC20",
              "name": "",
              "type": "address"
            }
          ],
          "stateMutability": "view",
          "type": "function"
        },
        {
          "inputs": [],
          "name": "USD",
          "outputs": [
            {
              "internalType": "contract IERC20",
              "name": "",
              "type": "address"
            }
          ],
          "stateMutability": "view",
          "type": "function"
        },
        {
          "inputs": [
            {
              "internalType": "uint256",
              "name": "_amount",
              "type": "uint256"
            }
          ],
          "name": "borrowBTC",
          "outputs": [],
          "stateMutability": "nonpayable",
          "type": "function"
        },
        {
          "inputs": [],
          "name": "borrowableRatio",
          "outputs": [
            {
              "internalType": "uint256",
              "name": "",
              "type": "uint256"
            }
          ],
          "stateMutability": "view",
          "type": "function"
        },
        {
          "inputs": [
            {
              "internalType": "address",
              "name": "_user",
              "type": "address"
            }
          ],
          "name": "calculateInterest",
          "outputs": [
            {
              "internalType": "uint256",
              "name": "",
              "type": "uint256"
            }
          ],
          "stateMutability": "view",
          "type": "function"
        },
        {
          "inputs": [],
          "name": "collateralRatio",
          "outputs": [
            {
              "internalType": "uint256",
              "name": "",
              "type": "uint256"
            }
          ],
          "stateMutability": "view",
          "type": "function"
        },
        {
          "inputs": [
            {
              "internalType": "uint256",
              "name": "_amount",
              "type": "uint256"
            }
          ],
          "name": "depositBTC",
          "outputs": [],
          "stateMutability": "nonpayable",
          "type": "function"
        },
        {
          "inputs": [
            {
              "internalType": "uint256",
              "name": "_amount",
              "type": "uint256"
            }
          ],
          "name": "depositCollateral",
          "outputs": [],
          "stateMutability": "nonpayable",
          "type": "function"
        },
        {
          "inputs": [
            {
              "internalType": "address",
              "name": "_user",
              "type": "address"
            }
          ],
          "name": "getBorrowableAmount",
          "outputs": [
            {
              "internalType": "uint256",
              "name": "",
              "type": "uint256"
            }
          ],
          "stateMutability": "view",
          "type": "function"
        },
        {
          "inputs": [],
          "name": "getCurrentApy",
          "outputs": [
            {
              "internalType": "uint256",
              "name": "",
              "type": "uint256"
            }
          ],
          "stateMutability": "pure",
          "type": "function"
        },
        {
          "inputs": [
            {
              "internalType": "address",
              "name": "lender",
              "type": "address"
            }
          ],
          "name": "getLenderBalance",
          "outputs": [
            {
              "internalType": "uint256",
              "name": "",
              "type": "uint256"
            }
          ],
          "stateMutability": "view",
          "type": "function"
        },
        {
          "inputs": [
            {
              "internalType": "address",
              "name": "_borrower",
              "type": "address"
            }
          ],
          "name": "getLoanDetails",
          "outputs": [
            {
              "components": [
                {
                  "internalType": "uint256",
                  "name": "amount",
                  "type": "uint256"
                },
                {
                  "internalType": "uint256",
                  "name": "timestamp",
                  "type": "uint256"
                },
                {
                  "internalType": "uint256",
                  "name": "collateral",
                  "type": "uint256"
                },
                {
                  "internalType": "bool",
                  "name": "active",
                  "type": "bool"
                }
              ],
              "internalType": "struct CoreLoanPlatform.Loan",
              "name": "",
              "type": "tuple"
            }
          ],
          "stateMutability": "view",
          "type": "function"
        },
        {
          "inputs": [],
          "name": "getTotalBorrowed",
          "outputs": [
            {
              "internalType": "uint256",
              "name": "",
              "type": "uint256"
            }
          ],
          "stateMutability": "view",
          "type": "function"
        },
        {
          "inputs": [],
          "name": "getTotalStaked",
          "outputs": [
            {
              "internalType": "uint256",
              "name": "",
              "type": "uint256"
            }
          ],
          "stateMutability": "view",
          "type": "function"
        },
        {
          "inputs": [
            {
              "internalType": "address",
              "name": "user",
              "type": "address"
            }
          ],
          "name": "getUserCollateral",
          "outputs": [
            {
              "internalType": "uint256",
              "name": "",
              "type": "uint256"
            }
          ],
          "stateMutability": "view",
          "type": "function"
        },
        {
          "inputs": [
            {
              "internalType": "address",
              "name": "user",
              "type": "address"
            }
          ],
          "name": "getUserStaked",
          "outputs": [
            {
              "internalType": "uint256",
              "name": "",
              "type": "uint256"
            }
          ],
          "stateMutability": "view",
          "type": "function"
        },
        {
          "inputs": [],
          "name": "interestRate",
          "outputs": [
            {
              "internalType": "uint256",
              "name": "",
              "type": "uint256"
            }
          ],
          "stateMutability": "view",
          "type": "function"
        },
        {
          "inputs": [
            {
              "internalType": "address",
              "name": "",
              "type": "address"
            }
          ],
          "name": "lenderBalance",
          "outputs": [
            {
              "internalType": "uint256",
              "name": "",
              "type": "uint256"
            }
          ],
          "stateMutability": "view",
          "type": "function"
        },
        {
          "inputs": [],
          "name": "loanDuration",
          "outputs": [
            {
              "internalType": "uint256",
              "name": "",
              "type": "uint256"
            }
          ],
          "stateMutability": "view",
          "type": "function"
        },
        {
          "inputs": [
            {
              "internalType": "address",
              "name": "",
              "type": "address"
            }
          ],
          "name": "loans",
          "outputs": [
            {
              "internalType": "uint256",
              "name": "amount",
              "type": "uint256"
            },
            {
              "internalType": "uint256",
              "name": "timestamp",
              "type": "uint256"
            },
            {
              "internalType": "uint256",
              "name": "collateral",
              "type": "uint256"
            },
            {
              "internalType": "bool",
              "name": "active",
              "type": "bool"
            }
          ],
          "stateMutability": "view",
          "type": "function"
        },
        {
          "inputs": [
            {
              "internalType": "address",
              "name": "_user",
              "type": "address"
            }
          ],
          "name": "repayLoan",
          "outputs": [],
          "stateMutability": "nonpayable",
          "type": "function"
        },
        {
          "inputs": [
            {
              "internalType": "address",
              "name": "",
              "type": "address"
            }
          ],
          "name": "userCollateral",
          "outputs": [
            {
              "internalType": "uint256",
              "name": "",
              "type": "uint256"
            }
          ],
          "stateMutability": "view",
          "type": "function"
        },
        {
          "inputs": [
            {
              "internalType": "uint256",
              "name": "_amount",
              "type": "uint256"
            }
          ],
          "name": "withdrawBTC",
          "outputs": [],
          "stateMutability": "nonpayable",
          "type": "function"
        },
        {
          "inputs": [
            {
              "internalType": "uint256",
              "name": "_amount",
              "type": "uint256"
            }
          ],
          "name": "withdrawCollateral",
          "outputs": [],
          "stateMutability": "nonpayable",
          "type": "function"
        }
      ],
      "evm": {
        "bytecode": {
          "linkReferences": {},
          "object": "60c060405260966000556005600155605060025562278d006003556000600455600060055534801561003057600080fd5b5060805160a05161041f6100566000396000610237015260006101cb015261041f6000f3fe608060405234801561001057600080fd5b50600436106101985760003560e01c8063a6b6d798116100e3578063dac3fc3f1161008c578063f4925de511610066578063f4925de51461019d578063f5521bf114610338578063f69f1e4a1461034157600080fd5b8063dac3fc3f14610267578063e11932cf14610267578063e8a7da8e146102f057600080fd5b8063bad4a01f116100bd578063bad4a01f14610259578063bd09085a14610267578063d1a405641461025957600080fd5b8063a6b6d79814610259578063b4eae1cb146102e7578063b6f7132f1461026757600080fd5b80636112fe2e1161014557806373b4086b1161011f57806373b4086b146102845780637c3a00fd146102de57806390b4588b1461025957600080fd5b80636112fe2e14610259578063691d1eb3146102675780637218d1281461027b57600080fd5b80631bf6c21b116101765780631bf6c21b146101c6578063275972ca146102125780632792949d1461023257600080fd5b80630307c4a11461019d5780630917e7761461019d578063190ef1e6146101b3575b600080fd5b60005b6040519081526020015b60405180910390f35b6101c46101c1366004610393565b50565b005b6101ed7f000000000000000000000000000000000000000000000000000000000000000081565b60405173ffffffffffffffffffffffffffffffffffffffff90911681526020016101aa565b6101a0610220366004610393565b60076020526000908152604090205481565b6101ed7f000000000000000000000000000000000000000000000000000000000000000081565b6101c46101c13660046103d0565b6101a0610275366004610393565b50600090565b6101a060025481565b6102bc610292366004610393565b60066020526000908152604090208054600182015460028301546003909301549192909160ff1684565b60408051948552602085019390935291830152151560608201526080016101aa565b6101a060015481565b6101a060005481565b6103036102fe366004610393565b610361565b6040516101aa919081518152602080830151908201526040808301519082015260609182015115159181019190915260800190565b6101a060035481565b6101a061034f366004610393565b60086020526000908152604090205481565b61038e60405180608001604052806000815260200160008152602001600081526020016000151581525090565b919050565b6000602082840312156103a557600080fd5b813573ffffffffffffffffffffffffffffffffffffffff811681146103c957600080fd5b9392505050565b6000602082840312156103e257600080fd5b503591905056fea2646970667358221220209581ae2c2f9b7e715fe90b7815964a97b462d12e05db66aa37f23644646cd164736f6c63430008180033",
          "opcodes": "PUSH1 0xC0 PUSH1 0x40 MSTORE PUSH1 0x96 PUSH1 0x0 SSTORE PUSH1 0x5 PUSH1 0x1 SSTORE PUSH1 0x50 PUSH1 0x2 SSTORE PUSH3 0x278D00 PUSH1 0x3 SSTORE PUSH1 0x0 PUSH1 0x4 SSTORE PUSH1 0x0 PUSH1 0x5 SSTORE CALLVALUE DUP1 ISZERO PUSH2 0x30 JUMPI PUSH1 0x0 DUP1 REVERT JUMPDEST POP PUSH1 0x80 MLOAD PUSH1 0xA0 MLOAD PUSH2 0x41F PUSH2 0x56 PUSH1 0x0 CODECOPY PUSH1 0x0 PUSH2 0x237 ADD MSTORE PUSH1 0x0 PUSH2 0x1CB ADD MSTORE PUSH2 0x41F PUSH1 0x0 RETURN INVALID PUSH1 0x80 PUSH1 0x40 MSTORE CALLVALUE DUP1 ISZERO PUSH2 0x10 JUMPI PUSH1 0x0 DUP1 REVERT JUMPDEST POP PUSH1 0x4 CALLDATASIZE LT PUSH2 0x198 JUMPI PUSH1 0x0 CALLDATALOAD PUSH1 0xE0 SHR DUP1 PUSH4 0xA6B6D798 GT PUSH2 0xE3 JUMPI DUP1 PUSH4 0xDAC3FC3F GT PUSH2 0x8C JUMPI DUP1 PUSH4 0xF4925DE5 GT PUSH2 0x66 JUMPI DUP1 PUSH4 0xF4925DE5 EQ PUSH2 0x19D JUMPI DUP1 PUSH4 0xF5521BF1 EQ PUSH2 0x338 JUMPI DUP1 PUSH4 0xF69F1E4A EQ PUSH2 0x341 JUMPI PUSH1 0x0 DUP1 REVERT JUMPDEST DUP1 PUSH4 0xDAC3FC3F EQ PUSH2 0x267 JUMPI DUP1 PUSH4 0xE11932CF EQ PUSH2 0x267 JUMPI DUP1 PUSH4 0xE8A7DA8E EQ PUSH2 0x2F0 JUMPI PUSH1 0x0 DUP1 REVERT JUMPDEST DUP1 PUSH4 0xBAD4A01F GT PUSH2 0xBD JUMPI DUP1 PUSH4 0xBAD4A01F EQ PUSH2 0x259 JUMPI DUP1 PUSH4 0xBD09085A EQ PUSH2 0x267 JUMPI DUP1 PUSH4 0xD1A40564 EQ PUSH2 0x259 JUMPI PUSH1 0x0 DUP1 REVERT JUMPDEST DUP1 PUSH4 0xA6B6D798 EQ PUSH2 0x259 JUMPI DUP1 PUSH4 0xB4EAE1CB EQ PUSH2 0x2E7 JUMPI DUP1 PUSH4 0xB6F7132F EQ PUSH2 0x267 JUMPI PUSH1 0x0 DUP1 REVERT JUMPDEST DUP1 PUSH4 0x6112FE2E GT PUSH2 0x145 JUMPI DUP1 PUSH4 0x73B4086B GT PUSH2 0x11F JUMPI DUP1 PUSH4 0x73B4086B EQ PUSH2 0x284 JUMPI DUP1 PUSH4 0x7C3A00FD EQ PUSH2 0x2DE JUMPI DUP1 PUSH4 0x90B4588B EQ PUSH2 0x259 JUMPI PUSH1 0x0 DUP1 REVERT JUMPDEST DUP1 PUSH4 0x6112FE2E EQ PUSH2 0x259 JUMPI DUP1 PUSH4 0x691D1EB3 EQ PUSH2 0x267 JUMPI DUP1 PUSH4 0x7218D128 EQ PUSH2 0x27B JUMPI PUSH1 0x0 DUP1 REVERT JUMPDEST DUP1 PUSH4 0x1BF6C21B GT PUSH2 0x176 JUMPI DUP1 PUSH4 0x1BF6C21B EQ PUSH2 0x1C6 JUMPI DUP1 PUSH4 0x275972CA EQ PUSH2 0x212 JUMPI DUP1 PUSH4 0x2792949D EQ PUSH2 0x232 JUMPI PUSH1 0x0 DUP1 REVERT JUMPDEST DUP1 PUSH4 0x307C4A1 EQ PUSH2 0x19D JUMPI DUP1 PUSH4 0x917E776 EQ PUSH2 0x19D JUMPI DUP1 PUSH4 0x190EF1E6 EQ PUSH2 0x1B3 JUMPI JUMPDEST PUSH1 0x0 DUP1 REVERT JUMPDEST PUSH1 0x0 JUMPDEST PUSH1 0x40 MLOAD SWAP1 DUP2 MSTORE PUSH1 0x20 ADD JUMPDEST PUSH1 0x40 MLOAD DUP1 SWAP2 SUB SWAP1 RETURN JUMPDEST PUSH2 0x1C4 PUSH2 0x1C1 CALLDATASIZE PUSH1 0x4 PUSH2 0x393 JUMP JUMPDEST POP JUMP JUMPDEST STOP JUMPDEST PUSH2 0x1ED PUSH32 0x0 DUP2 JUMP JUMPDEST PUSH1 0x40 MLOAD PUSH20 0xFFFFFFFFFFFFFFFFFFFFFFFFFFFFFFFFFFFFFFFF SWAP1 SWAP2 AND DUP2 MSTORE PUSH1 0x20 ADD PUSH2 0x1AA JUMP JUMPDEST PUSH2 0x1A0 PUSH2 0x220 CALLDATASIZE PUSH1 0x4 PUSH2 0x393 JUMP JUMPDEST PUSH1 0x7 PUSH1 0x20 MSTORE PUSH1 0x0 SWAP1 DUP2 MSTORE PUSH1 0x40 SWAP1 KECCAK256 SLOAD DUP2 JUMP JUMPDEST PUSH2 0x1ED PUSH32 0x0 DUP2 JUMP JUMPDEST PUSH2 0x1C4 PUSH2 0x1C1 CALLDATASIZE PUSH1 0x4 PUSH2 0x3D0 JUMP JUMPDEST PUSH2 0x1A0 PUSH2 0x275 CALLDATASIZE PUSH1 0x4 PUSH2 0x393 JUMP JUMPDEST POP PUSH1 0x0 SWAP1 JUMP JUMPDEST PUSH2 0x1A0 PUSH1 0x2 SLOAD DUP2 JUMP JUMPDEST PUSH2 0x2BC PUSH2 0x292 CALLDATASIZE PUSH1 0x4 PUSH2 0x393 JUMP JUMPDEST PUSH1 0x6 PUSH1 0x20 MSTORE PUSH1 0x0 SWAP1 DUP2 MSTORE PUSH1 0x40 SWAP1 KECCAK256 DUP1 SLOAD PUSH1 0x1 DUP3 ADD SLOAD PUSH1 0x2 DUP4 ADD SLOAD PUSH1 0x3 SWAP1 SWAP4 ADD SLOAD SWAP2 SWAP3 SWAP1 SWAP2 PUSH1 0xFF AND DUP5 JUMP JUMPDEST PUSH1 0x40 DUP1 MLOAD SWAP5 DUP6 MSTORE PUSH1 0x20 DUP6 ADD SWAP4 SWAP1 SWAP4 MSTORE SWAP2 DUP4 ADD MSTORE ISZERO ISZERO PUSH1 0x60 DUP3 ADD MSTORE PUSH1 0x80 ADD PUSH2 0x1AA JUMP JUMPDEST PUSH2 0x1A0 PUSH1 0x1 SLOAD DUP2 JUMP JUMPDEST PUSH2 0x1A0 PUSH1 0x0 SLOAD DUP2 JUMP JUMPDEST PUSH2 0x303 PUSH2 0x2FE CALLDATASIZE PUSH1 0x4 PUSH2 0x393 JUMP JUMPDEST PUSH2 0x361 JUMP JUMPDEST PUSH1 0x40 MLOAD PUSH2 0x1AA SWAP2 SWAP1 DUP2 MLOAD DUP2 MSTORE PUSH1 0x20 DUP1 DUP4 ADD MLOAD SWAP1 DUP3 ADD MSTORE PUSH1 0x40 DUP1 DUP4 ADD MLOAD SWAP1 DUP3 ADD MSTORE PUSH1 0x60 SWAP2 DUP3 ADD MLOAD ISZERO ISZERO SWAP2 DUP2 ADD SWAP2 SWAP1 SWAP2 MSTORE PUSH1 0x80 ADD SWAP1 JUMP JUMPDEST PUSH2 0x1A0 PUSH1 0x3 SLOAD DUP2 JUMP JUMPDEST PUSH2 0x1A0 PUSH2 0x34F CALLDATASIZE PUSH1 0x4 PUSH2 0x393 JUMP JUMPDEST PUSH1 0x8 PUSH1 0x20 MSTORE PUSH1 0x0 SWAP1 DUP2 MSTORE PUSH1 0x40 SWAP1 KECCAK256 SLOAD DUP2 JUMP JUMPDEST PUSH2 0x38E PUSH1 0x40 MLOAD DUP1 PUSH1 0x80 ADD PUSH1 0x40 MSTORE DUP1 PUSH1 0x0 DUP2 MSTORE PUSH1 0x20 ADD PUSH1 0x0 DUP2 MSTORE PUSH1 0x20 ADD PUSH1 0x0 DUP2 MSTORE PUSH1 0x20 ADD PUSH1 0x0 ISZERO ISZERO DUP2 MSTORE POP SWAP1 JUMP JUMPDEST SWAP2 SWAP1 POP JUMP JUMPDEST PUSH1 0x0 PUSH1 0x20 DUP3 DUP5 SUB SLT ISZERO PUSH2 0x3A5 JUMPI PUSH1 0x0 DUP1 REVERT JUMPDEST DUP2 CALLDATALOAD PUSH20 0xFFFFFFFFFFFFFFFFFFFFFFFFFFFFFFFFFFFFFFFF DUP2 AND DUP2 EQ PUSH2 0x3C9 JUMPI PUSH1 0x0 DUP1 REVERT JUMPDEST SWAP4 SWAP3 POP POP POP JUMP JUMPDEST PUSH1 0x0 PUSH1 0x20 DUP3 DUP5 SUB SLT ISZERO PUSH2 0x3E2 JUMPI PUSH1 0x0 DUP1 REVERT JUMPDEST POP CALLDATALOAD SWAP2 SWAP1 POP JUMP INVALID LOG2 PUSH5 0x6970667358 0x22 SLT KECCAK256 KECCAK256 SWAP6 DUP2 0xAE 0x2C 0x2F SWAP12 PUSH31 0x715FE90B7815964A97B462D12E05DB66AA37F23644646CD164736F6C634300 ADDMOD XOR STOP CALLER "
        },
        "methodIdentifiers": {
          "BTC()": "2792949d",
          "USD()": "1bf6c21b",
          "borrowBTC(uint256)": "d1a40564",
          "borrowableRatio()": "7218d128",
          "calculateInterest(address)": "e11932cf",
          "collateralRatio()": "b4eae1cb",
          "depositBTC(uint256)": "a6b6d798",
          "depositCollateral(uint256)": "bad4a01f",
          "getBorrowableAmount(address)": "691d1eb3",
          "getCurrentApy()": "f4925de5",
          "getLenderBalance(address)": "bd09085a",
          "getLoanDetails(address)": "e8a7da8e",
          "getTotalBorrowed()": "0307c4a1",
          "getTotalStaked()": "0917e776",
          "getUserCollateral(address)": "b6f7132f",
          "getUserStaked(address)": "dac3fc3f",
          "interestRate()": "7c3a00fd",
          "lenderBalance(address)": "275972ca",
          "loanDuration()": "f5521bf1",
          "loans(address)": "73b4086b",
          "repayLoan(address)": "190ef1e6",
          "userCollateral(address)": "f69f1e4a",
          "withdrawBTC(uint256)": "90b4588b",
          "withdrawCollateral(uint256)": "6112fe2e"
        }
      }
    }
  }
}