{
  "_format": "hh-sol-artifact-1",
  "contractName": "CoreLoanPlatform",
  "sourceName": "contracts/CoreLoanPlatform.sol",
  "abi": [
    {
      "inputs": [
        {
          "internalType": "address",
          "name": "_USD",
          "type": "address"
        },
        {
          "internalType": "address",
          "name": "_BTC",
          "type": "address"
        }
      ],
      "stateMutability": "nonpayable",
      "type": "constructor"
    },
    {
      "inputs": [
        {
          "internalType": "address",
          "name": "target",
          "type": "address"
        }
      ],
      "name": "AddressEmptyCode",
      "type": "error"
    },
    {
      "inputs": [
        {
          "internalType": "address",
          "name": "account",
          "type": "address"
        }
      ],
      "name": "AddressInsufficientBalance",
      "type": "error"
    },
    {
      "inputs": [],
      "name": "FailedInnerCall",
      "type": "error"
    },
    {
      "inputs": [
        {
          "internalType": "address",
          "name": "owner",
          "type": "address"
        }
      ],
      "name": "OwnableInvalidOwner",
      "type": "error"
    },
    {
      "inputs": [
        {
          "internalType": "address",
          "name": "account",
          "type": "address"
        }
      ],
      "name": "OwnableUnauthorizedAccount",
      "type": "error"
    },
    {
      "inputs": [
        {
          "internalType": "address",
          "name": "token",
          "type": "address"
        }
      ],
      "name": "SafeERC20FailedOperation",
      "type": "error"
    },
    {
      "anonymous": false,
      "inputs": [
        {
          "indexed": true,
          "internalType": "address",
          "name": "user",
          "type": "address"
        },
        {
          "indexed": false,
          "internalType": "uint256",
          "name": "amount",
          "type": "uint256"
        }
      ],
      "name": "CollateralDeposited",
      "type": "event"
    },
    {
      "anonymous": false,
      "inputs": [
        {
          "indexed": true,
          "internalType": "address",
          "name": "previousOwner",
          "type": "address"
        },
        {
          "indexed": true,
          "internalType": "address",
          "name": "newOwner",
          "type": "address"
        }
      ],
      "name": "OwnershipTransferred",
      "type": "event"
    },
    {
      "anonymous": false,
      "inputs": [
        {
          "indexed": true,
          "internalType": "address",
          "name": "user",
          "type": "address"
        },
        {
          "indexed": false,
          "internalType": "uint256",
          "name": "amount",
          "type": "uint256"
        }
      ],
      "name": "collaterWithdrawn",
      "type": "event"
    },
    {
      "anonymous": false,
      "inputs": [
        {
          "indexed": true,
          "internalType": "address",
          "name": "borrower",
          "type": "address"
        },
        {
          "indexed": false,
          "internalType": "uint256",
          "name": "amount",
          "type": "uint256"
        },
        {
          "indexed": false,
          "internalType": "uint256",
          "name": "collateral",
          "type": "uint256"
        }
      ],
      "name": "loanTaken",
      "type": "event"
    },
    {
      "inputs": [],
      "name": "BTC",
      "outputs": [
        {
          "internalType": "contract IERC20",
          "name": "",
          "type": "address"
        }
      ],
      "stateMutability": "view",
      "type": "function"
    },
    {
      "inputs": [],
      "name": "USD",
      "outputs": [
        {
          "internalType": "contract IERC20",
          "name": "",
          "type": "address"
        }
      ],
      "stateMutability": "view",
      "type": "function"
    },
    {
      "inputs": [
        {
          "internalType": "uint256",
          "name": "_amount",
          "type": "uint256"
        }
      ],
      "name": "borrowBTC",
      "outputs": [],
      "stateMutability": "nonpayable",
      "type": "function"
    },
    {
      "inputs": [],
      "name": "borrowableRatio",
      "outputs": [
        {
          "internalType": "uint256",
          "name": "",
          "type": "uint256"
        }
      ],
      "stateMutability": "view",
      "type": "function"
    },
    {
      "inputs": [
        {
          "internalType": "address",
          "name": "_user",
          "type": "address"
        }
      ],
      "name": "calculateInterest",
      "outputs": [
        {
          "internalType": "uint256",
          "name": "",
          "type": "uint256"
        }
      ],
      "stateMutability": "view",
      "type": "function"
    },
    {
      "inputs": [],
      "name": "collateralRatio",
      "outputs": [
        {
          "internalType": "uint256",
          "name": "",
          "type": "uint256"
        }
      ],
      "stateMutability": "view",
      "type": "function"
    },
    {
      "inputs": [
        {
          "internalType": "uint256",
          "name": "_amount",
          "type": "uint256"
        }
      ],
      "name": "depositBTC",
      "outputs": [],
      "stateMutability": "nonpayable",
      "type": "function"
    },
    {
      "inputs": [
        {
          "internalType": "uint256",
          "name": "_amount",
          "type": "uint256"
        }
      ],
      "name": "depositCollateral",
      "outputs": [],
      "stateMutability": "nonpayable",
      "type": "function"
    },
    {
      "inputs": [
        {
          "internalType": "address",
          "name": "_user",
          "type": "address"
        }
      ],
      "name": "getBorrowableAmount",
      "outputs": [
        {
          "internalType": "uint256",
          "name": "",
          "type": "uint256"
        }
      ],
      "stateMutability": "view",
      "type": "function"
    },
    {
      "inputs": [],
      "name": "getCurrentApy",
      "outputs": [
        {
          "internalType": "uint256",
          "name": "",
          "type": "uint256"
        }
      ],
      "stateMutability": "pure",
      "type": "function"
    },
    {
      "inputs": [
        {
          "internalType": "address",
          "name": "lender",
          "type": "address"
        }
      ],
      "name": "getLenderBalance",
      "outputs": [
        {
          "internalType": "uint256",
          "name": "",
          "type": "uint256"
        }
      ],
      "stateMutability": "view",
      "type": "function"
    },
    {
      "inputs": [
        {
          "internalType": "address",
          "name": "_borrower",
          "type": "address"
        }
      ],
      "name": "getLoanDetails",
      "outputs": [
        {
          "components": [
            {
              "internalType": "uint256",
              "name": "amount",
              "type": "uint256"
            },
            {
              "internalType": "uint256",
              "name": "timestamp",
              "type": "uint256"
            },
            {
              "internalType": "uint256",
              "name": "collateral",
              "type": "uint256"
            },
            {
              "internalType": "bool",
              "name": "active",
              "type": "bool"
            }
          ],
          "internalType": "struct CoreLoanPlatform.Loan",
          "name": "",
          "type": "tuple"
        }
      ],
      "stateMutability": "view",
      "type": "function"
    },
    {
      "inputs": [],
      "name": "getTotalBorrowed",
      "outputs": [
        {
          "internalType": "uint256",
          "name": "",
          "type": "uint256"
        }
      ],
      "stateMutability": "view",
      "type": "function"
    },
    {
      "inputs": [],
      "name": "getTotalStaked",
      "outputs": [
        {
          "internalType": "uint256",
          "name": "",
          "type": "uint256"
        }
      ],
      "stateMutability": "view",
      "type": "function"
    },
    {
      "inputs": [
        {
          "internalType": "address",
          "name": "_user",
          "type": "address"
        }
      ],
      "name": "getUserCollateral",
      "outputs": [
        {
          "internalType": "uint256",
          "name": "",
          "type": "uint256"
        }
      ],
      "stateMutability": "view",
      "type": "function"
    },
    {
      "inputs": [
        {
          "internalType": "address",
          "name": "user",
          "type": "address"
        }
      ],
      "name": "getUserStaked",
      "outputs": [
        {
          "internalType": "uint256",
          "name": "",
          "type": "uint256"
        }
      ],
      "stateMutability": "view",
      "type": "function"
    },
    {
      "inputs": [],
      "name": "interestRate",
      "outputs": [
        {
          "internalType": "uint256",
          "name": "",
          "type": "uint256"
        }
      ],
      "stateMutability": "view",
      "type": "function"
    },
    {
      "inputs": [
        {
          "internalType": "address",
          "name": "",
          "type": "address"
        }
      ],
      "name": "lenderBalance",
      "outputs": [
        {
          "internalType": "uint256",
          "name": "",
          "type": "uint256"
        }
      ],
      "stateMutability": "view",
      "type": "function"
    },
    {
      "inputs": [],
      "name": "loanDuration",
      "outputs": [
        {
          "internalType": "uint256",
          "name": "",
          "type": "uint256"
        }
      ],
      "stateMutability": "view",
      "type": "function"
    },
    {
      "inputs": [
        {
          "internalType": "address",
          "name": "",
          "type": "address"
        }
      ],
      "name": "loans",
      "outputs": [
        {
          "internalType": "uint256",
          "name": "amount",
          "type": "uint256"
        },
        {
          "internalType": "uint256",
          "name": "timestamp",
          "type": "uint256"
        },
        {
          "internalType": "uint256",
          "name": "collateral",
          "type": "uint256"
        },
        {
          "internalType": "bool",
          "name": "active",
          "type": "bool"
        }
      ],
      "stateMutability": "view",
      "type": "function"
    },
    {
      "inputs": [],
      "name": "owner",
      "outputs": [
        {
          "internalType": "address",
          "name": "",
          "type": "address"
        }
      ],
      "stateMutability": "view",
      "type": "function"
    },
    {
      "inputs": [],
      "name": "renounceOwnership",
      "outputs": [],
      "stateMutability": "nonpayable",
      "type": "function"
    },
    {
      "inputs": [
        {
          "internalType": "address",
          "name": "_user",
          "type": "address"
        }
      ],
      "name": "repayLoan",
      "outputs": [],
      "stateMutability": "nonpayable",
      "type": "function"
    },
    {
      "inputs": [
        {
          "internalType": "address",
          "name": "newOwner",
          "type": "address"
        }
      ],
      "name": "transferOwnership",
      "outputs": [],
      "stateMutability": "nonpayable",
      "type": "function"
    },
    {
      "inputs": [
        {
          "internalType": "address",
          "name": "",
          "type": "address"
        }
      ],
      "name": "userCollateral",
      "outputs": [
        {
          "internalType": "uint256",
          "name": "",
          "type": "uint256"
        }
      ],
      "stateMutability": "view",
      "type": "function"
    },
    {
      "inputs": [
        {
          "internalType": "uint256",
          "name": "_amount",
          "type": "uint256"
        }
      ],
      "name": "withdrawBTC",
      "outputs": [],
      "stateMutability": "nonpayable",
      "type": "function"
    },
    {
      "inputs": [
        {
          "internalType": "uint256",
          "name": "_amount",
          "type": "uint256"
        }
      ],
      "name": "withdrawCollateral",
      "outputs": [],
      "stateMutability": "nonpayable",
      "type": "function"
    }
  ],
  "bytecode": "0x60c060405260966001556005600255605060035562278d00600455600060055560006006553480156200003157600080fd5b50604051620012703803806200127083398101604081905262000054916200017c565b33806200007c57604051631e4fbdf760e01b8152600060048201526024015b60405180910390fd5b62000087816200010f565b506001600160a01b03821615801590620000a957506001600160a01b03811615155b620000f75760405162461bcd60e51b815260206004820152601760248201527f496e76616c696420746f6b656e20616464726573736573000000000000000000604482015260640162000073565b6001600160a01b039182166080521660a052620001b4565b600080546001600160a01b038381166001600160a01b0319831681178455604051919092169283917f8be0079c531659141344cd1fd0a4f28419497f9722a3daafe3b4186f6b6457e09190a35050565b80516001600160a01b03811681146200017757600080fd5b919050565b600080604083850312156200019057600080fd5b6200019b836200015f565b9150620001ab602084016200015f565b90509250929050565b60805160a05161107a620001f66000396000818161024b0152818161099d0152610ac90152600081816101ec015281816105e101526106ef015261107a6000f3fe608060405234801561001057600080fd5b50600436106101b95760003560e01c806390b4588b116100f9578063dac3fc3f11610097578063f2fde38b11610071578063f2fde38b146103da578063f4925de5146101be578063f5521bf1146103ed578063f69f1e4a146103f657600080fd5b8063dac3fc3f1461036b578063e11932cf1461036b578063e8a7da8e1461039257600080fd5b8063b6f7132f116100d3578063b6f7132f1461032f578063bad4a01f14610358578063bd09085a1461036b578063d1a405641461037f57600080fd5b806390b4588b14610318578063a6b6d79814610318578063b4eae1cb1461032657600080fd5b80636112fe2e116101665780637218d128116101405780637218d1281461029b57806373b4086b146102a45780637c3a00fd146102fe5780638da5cb5b1461030757600080fd5b80636112fe2e1461026d578063691d1eb314610280578063715018a61461029357600080fd5b80631bf6c21b116101975780631bf6c21b146101e7578063275972ca146102265780632792949d1461024657600080fd5b80630307c4a1146101be5780630917e776146101be578063190ef1e6146101d4575b600080fd5b60005b6040519081526020015b60405180910390f35b6101e56101e2366004610f23565b50565b005b61020e7f000000000000000000000000000000000000000000000000000000000000000081565b6040516001600160a01b0390911681526020016101cb565b6101c1610234366004610f23565b60086020526000908152604090205481565b61020e7f000000000000000000000000000000000000000000000000000000000000000081565b6101e561027b366004610f4c565b610416565b6101c161028e366004610f23565b610643565b6101e561067e565b6101c160035481565b6102dc6102b2366004610f23565b60076020526000908152604090208054600182015460028301546003909301549192909160ff1684565b60408051948552602085019390935291830152151560608201526080016101cb565b6101c160025481565b6000546001600160a01b031661020e565b6101e56101e2366004610f4c565b6101c160015481565b6101c161033d366004610f23565b6001600160a01b031660009081526009602052604090205490565b6101e5610366366004610f4c565b610692565b6101c1610379366004610f23565b50600090565b6101e561038d366004610f4c565b610773565b6103a56103a0366004610f23565b610b39565b6040516101cb919081518152602080830151908201526040808301519082015260609182015115159181019190915260800190565b6101e56103e8366004610f23565b610b6b565b6101c160045481565b6101c1610404366004610f23565b60096020526000908152604090205481565b6000811161046b5760405162461bcd60e51b815260206004820152601d60248201527f616d6f756e74206d7573742062652067726561746572207468616e203000000060448201526064015b60405180910390fd5b336000908152600960205260409020548111156104ca5760405162461bcd60e51b815260206004820152601760248201527f496e73756666696369656e7420636f6c6c61746572616c0000000000000000006044820152606401610462565b3360009081526007602052604081206003015460ff166104eb5760006104fc565b336000908152600760205260409020545b905060006064600154836105109190610f7b565b61051a9190610f92565b33600090815260096020526040902054909150819061053a908590610fb4565b10156105d45760405162461bcd60e51b815260206004820152604260248201527f43616e6e6f74207769746864726177207468697320616d6f756e742c2057697460448201527f6864726177616c2077696c6c20756e646572636f6c6c61746572697a65206c6f60648201527f616e000000000000000000000000000000000000000000000000000000000000608482015260a401610462565b6106086001600160a01b037f0000000000000000000000000000000000000000000000000000000000000000163385610bbf565b60405183815233907fd8551d158f5c1e72197cd7ff9fc5b17cbdd700dfe06938334d4bad5871aac142906020015b60405180910390a2505050565b6003546001600160a01b038216600090815260096020526040812054909160649161066e9190610f7b565b6106789190610f92565b92915050565b610686610c38565b6106906000610c7e565b565b600081116106e25760405162461bcd60e51b815260206004820152601d60248201527f616d6f756e74206d7573742062652067726561746572207468616e20300000006044820152606401610462565b6107176001600160a01b037f000000000000000000000000000000000000000000000000000000000000000016333084610ce6565b3360009081526009602052604081208054839290610736908490610fc7565b909155505060405181815233907fd7243f6f8212d5188fd054141cf6ea89cfc0d91facb8c3afe2f88a13584801429060200160405180910390a250565b600081116107c35760405162461bcd60e51b815260206004820152601d60248201527f616d6f756e74206d7573742062652067726561746572207468616e20300000006044820152606401610462565b3360009081526007602052604090206003015460ff161561084c5760405162461bcd60e51b815260206004820152602360248201527f4578697374696e67206c6f616e206d757374206265207265706179656420666960448201527f72737400000000000000000000000000000000000000000000000000000000006064820152608401610462565b600060646001548361085e9190610f7b565b6108689190610f92565b336000908152600960205260409020549091508111156108ca5760405162461bcd60e51b815260206004820152601760248201527f496e73756666696369656e7420636f6c6c61746572616c0000000000000000006044820152606401610462565b6003543360009081526009602052604081205490916064916108ec9190610f7b565b6108f69190610f92565b90508083111561096d5760405162461bcd60e51b8152602060048201526024808201527f4c6f616e20616d6f756e74206578636565647320626f72726f7761626c65206c60448201527f696d6974000000000000000000000000000000000000000000000000000000006064820152608401610462565b6040517f70a0823100000000000000000000000000000000000000000000000000000000815230600482015283907f00000000000000000000000000000000000000000000000000000000000000006001600160a01b0316906370a0823190602401602060405180830381865afa1580156109ec573d6000803e3d6000fd5b505050506040513d601f19601f82011682018060405250810190610a109190610fda565b1015610a5e5760405162461bcd60e51b815260206004820152601e60248201527f496e73756666696369656e742066756e647320696e2074686520706f6f6c00006044820152606401610462565b604080516080810182528481524260208083019182528284018681526001606085018181523360008181526007909552969093209451855592519284019290925590516002830155516003909101805460ff1916911515919091179055610af0906001600160a01b037f0000000000000000000000000000000000000000000000000000000000000000169085610bbf565b82600554610afe9190610fc7565b600555604080518481526020810184905233917f1d60479553f5d0071f99be94d353bdd2615bb15fcca1606274bd5a767a00f2c69101610636565b610b6660405180608001604052806000815260200160008152602001600081526020016000151581525090565b919050565b610b73610c38565b6001600160a01b038116610bb6576040517f1e4fbdf700000000000000000000000000000000000000000000000000000000815260006004820152602401610462565b6101e281610c7e565b6040516001600160a01b03838116602483015260448201839052610c3391859182169063a9059cbb906064015b604051602081830303815290604052915060e01b6020820180517bffffffffffffffffffffffffffffffffffffffffffffffffffffffff8381831617835250505050610d25565b505050565b6000546001600160a01b03163314610690576040517f118cdaa7000000000000000000000000000000000000000000000000000000008152336004820152602401610462565b600080546001600160a01b038381167fffffffffffffffffffffffff0000000000000000000000000000000000000000831681178455604051919092169283917f8be0079c531659141344cd1fd0a4f28419497f9722a3daafe3b4186f6b6457e09190a35050565b6040516001600160a01b038481166024830152838116604483015260648201839052610d1f9186918216906323b872dd90608401610bec565b50505050565b6000610d3a6001600160a01b03841683610da1565b90508051600014158015610d5f575080806020019051810190610d5d9190610ff3565b155b15610c33576040517f5274afe70000000000000000000000000000000000000000000000000000000081526001600160a01b0384166004820152602401610462565b6060610daf83836000610db6565b9392505050565b606081471015610df4576040517fcd786059000000000000000000000000000000000000000000000000000000008152306004820152602401610462565b600080856001600160a01b03168486604051610e109190611015565b60006040518083038185875af1925050503d8060008114610e4d576040519150601f19603f3d011682016040523d82523d6000602084013e610e52565b606091505b5091509150610e62868383610e6c565b9695505050505050565b606082610e8157610e7c82610ee1565b610daf565b8151158015610e9857506001600160a01b0384163b155b15610eda576040517f9996b3150000000000000000000000000000000000000000000000000000000081526001600160a01b0385166004820152602401610462565b5080610daf565b805115610ef15780518082602001fd5b6040517f1425ea4200000000000000000000000000000000000000000000000000000000815260040160405180910390fd5b600060208284031215610f3557600080fd5b81356001600160a01b0381168114610daf57600080fd5b600060208284031215610f5e57600080fd5b5035919050565b634e487b7160e01b600052601160045260246000fd5b808202811582820484141761067857610678610f65565b600082610faf57634e487b7160e01b600052601260045260246000fd5b500490565b8181038181111561067857610678610f65565b8082018082111561067857610678610f65565b600060208284031215610fec57600080fd5b5051919050565b60006020828403121561100557600080fd5b81518015158114610daf57600080fd5b6000825160005b81811015611036576020818601810151858301520161101c565b50600092019182525091905056fea2646970667358221220131ef5c2cf9b55d4189436a6f3077ce1889d6dc193a413ce1633521a5e98033564736f6c63430008180033",
  "linkReferences": {},
  "deployedLinkReferences": {}
}