{
  "_format": "hh-sol-artifact-1",
  "contractName": "USD",
  "sourceName": "contracts/USD.sol",
  "abi": [
    {
      "inputs": [
        {
          "internalType": "string",
          "name": "name",
          "type": "string"
        },
        {
          "internalType": "string",
          "name": "symbol",
          "type": "string"
        }
      ],
      "stateMutability": "nonpayable",
      "type": "constructor"
    },
    {
      "inputs": [],
      "name": "ECDSAInvalidSignature",
      "type": "error"
    },
    {
      "inputs": [
        {
          "internalType": "uint256",
          "name": "length",
          "type": "uint256"
        }
      ],
      "name": "ECDSAInvalidSignatureLength",
      "type": "error"
    },
    {
      "inputs": [
        {
          "internalType": "bytes32",
          "name": "s",
          "type": "bytes32"
        }
      ],
      "name": "ECDSAInvalidSignatureS",
      "type": "error"
    },
    {
      "inputs": [
        {
          "internalType": "address",
          "name": "spender",
          "type": "address"
        },
        {
          "internalType": "uint256",
          "name": "allowance",
          "type": "uint256"
        },
        {
          "internalType": "uint256",
          "name": "needed",
          "type": "uint256"
        }
      ],
      "name": "ERC20InsufficientAllowance",
      "type": "error"
    },
    {
      "inputs": [
        {
          "internalType": "address",
          "name": "sender",
          "type": "address"
        },
        {
          "internalType": "uint256",
          "name": "balance",
          "type": "uint256"
        },
        {
          "internalType": "uint256",
          "name": "needed",
          "type": "uint256"
        }
      ],
      "name": "ERC20InsufficientBalance",
      "type": "error"
    },
    {
      "inputs": [
        {
          "internalType": "address",
          "name": "approver",
          "type": "address"
        }
      ],
      "name": "ERC20InvalidApprover",
      "type": "error"
    },
    {
      "inputs": [
        {
          "internalType": "address",
          "name": "receiver",
          "type": "address"
        }
      ],
      "name": "ERC20InvalidReceiver",
      "type": "error"
    },
    {
      "inputs": [
        {
          "internalType": "address",
          "name": "sender",
          "type": "address"
        }
      ],
      "name": "ERC20InvalidSender",
      "type": "error"
    },
    {
      "inputs": [
        {
          "internalType": "address",
          "name": "spender",
          "type": "address"
        }
      ],
      "name": "ERC20InvalidSpender",
      "type": "error"
    },
    {
      "inputs": [
        {
          "internalType": "uint256",
          "name": "deadline",
          "type": "uint256"
        }
      ],
      "name": "ERC2612ExpiredSignature",
      "type": "error"
    },
    {
      "inputs": [
        {
          "internalType": "address",
          "name": "signer",
          "type": "address"
        },
        {
          "internalType": "address",
          "name": "owner",
          "type": "address"
        }
      ],
      "name": "ERC2612InvalidSigner",
      "type": "error"
    },
    {
      "inputs": [
        {
          "internalType": "address",
          "name": "account",
          "type": "address"
        },
        {
          "internalType": "uint256",
          "name": "currentNonce",
          "type": "uint256"
        }
      ],
      "name": "InvalidAccountNonce",
      "type": "error"
    },
    {
      "inputs": [],
      "name": "InvalidShortString",
      "type": "error"
    },
    {
      "inputs": [
        {
          "internalType": "address",
          "name": "owner",
          "type": "address"
        }
      ],
      "name": "OwnableInvalidOwner",
      "type": "error"
    },
    {
      "inputs": [
        {
          "internalType": "address",
          "name": "account",
          "type": "address"
        }
      ],
      "name": "OwnableUnauthorizedAccount",
      "type": "error"
    },
    {
      "inputs": [
        {
          "internalType": "string",
          "name": "str",
          "type": "string"
        }
      ],
      "name": "StringTooLong",
      "type": "error"
    },
    {
      "anonymous": false,
      "inputs": [
        {
          "indexed": true,
          "internalType": "address",
          "name": "owner",
          "type": "address"
        },
        {
          "indexed": true,
          "internalType": "address",
          "name": "spender",
          "type": "address"
        },
        {
          "indexed": false,
          "internalType": "uint256",
          "name": "value",
          "type": "uint256"
        }
      ],
      "name": "Approval",
      "type": "event"
    },
    {
      "anonymous": false,
      "inputs": [],
      "name": "EIP712DomainChanged",
      "type": "event"
    },
    {
      "anonymous": false,
      "inputs": [
        {
          "indexed": true,
          "internalType": "address",
          "name": "previousOwner",
          "type": "address"
        },
        {
          "indexed": true,
          "internalType": "address",
          "name": "newOwner",
          "type": "address"
        }
      ],
      "name": "OwnershipTransferred",
      "type": "event"
    },
    {
      "anonymous": false,
      "inputs": [
        {
          "indexed": true,
          "internalType": "address",
          "name": "from",
          "type": "address"
        },
        {
          "indexed": true,
          "internalType": "address",
          "name": "to",
          "type": "address"
        },
        {
          "indexed": false,
          "internalType": "uint256",
          "name": "value",
          "type": "uint256"
        }
      ],
      "name": "Transfer",
      "type": "event"
    },
    {
      "inputs": [],
      "name": "DOMAIN_SEPARATOR",
      "outputs": [
        {
          "internalType": "bytes32",
          "name": "",
          "type": "bytes32"
        }
      ],
      "stateMutability": "view",
      "type": "function"
    },
    {
      "inputs": [
        {
          "internalType": "address",
          "name": "owner",
          "type": "address"
        },
        {
          "internalType": "address",
          "name": "spender",
          "type": "address"
        }
      ],
      "name": "allowance",
      "outputs": [
        {
          "internalType": "uint256",
          "name": "",
          "type": "uint256"
        }
      ],
      "stateMutability": "view",
      "type": "function"
    },
    {
      "inputs": [
        {
          "internalType": "address",
          "name": "spender",
          "type": "address"
        },
        {
          "internalType": "uint256",
          "name": "value",
          "type": "uint256"
        }
      ],
      "name": "approve",
      "outputs": [
        {
          "internalType": "bool",
          "name": "",
          "type": "bool"
        }
      ],
      "stateMutability": "nonpayable",
      "type": "function"
    },
    {
      "inputs": [
        {
          "internalType": "address",
          "name": "account",
          "type": "address"
        }
      ],
      "name": "balanceOf",
      "outputs": [
        {
          "internalType": "uint256",
          "name": "",
          "type": "uint256"
        }
      ],
      "stateMutability": "view",
      "type": "function"
    },
    {
      "inputs": [
        {
          "internalType": "address",
          "name": "from",
          "type": "address"
        },
        {
          "internalType": "uint256",
          "name": "amount",
          "type": "uint256"
        }
      ],
      "name": "burn",
      "outputs": [],
      "stateMutability": "nonpayable",
      "type": "function"
    },
    {
      "inputs": [],
      "name": "decimals",
      "outputs": [
        {
          "internalType": "uint8",
          "name": "",
          "type": "uint8"
        }
      ],
      "stateMutability": "view",
      "type": "function"
    },
    {
      "inputs": [],
      "name": "eip712Domain",
      "outputs": [
        {
          "internalType": "bytes1",
          "name": "fields",
          "type": "bytes1"
        },
        {
          "internalType": "string",
          "name": "name",
          "type": "string"
        },
        {
          "internalType": "string",
          "name": "version",
          "type": "string"
        },
        {
          "internalType": "uint256",
          "name": "chainId",
          "type": "uint256"
        },
        {
          "internalType": "address",
          "name": "verifyingContract",
          "type": "address"
        },
        {
          "internalType": "bytes32",
          "name": "salt",
          "type": "bytes32"
        },
        {
          "internalType": "uint256[]",
          "name": "extensions",
          "type": "uint256[]"
        }
      ],
      "stateMutability": "view",
      "type": "function"
    },
    {
      "inputs": [
        {
          "internalType": "address",
          "name": "to",
          "type": "address"
        },
        {
          "internalType": "uint256",
          "name": "amount",
          "type": "uint256"
        }
      ],
      "name": "mint",
      "outputs": [],
      "stateMutability": "nonpayable",
      "type": "function"
    },
    {
      "inputs": [],
      "name": "name",
      "outputs": [
        {
          "internalType": "string",
          "name": "",
          "type": "string"
        }
      ],
      "stateMutability": "view",
      "type": "function"
    },
    {
      "inputs": [
        {
          "internalType": "address",
          "name": "owner",
          "type": "address"
        }
      ],
      "name": "nonces",
      "outputs": [
        {
          "internalType": "uint256",
          "name": "",
          "type": "uint256"
        }
      ],
      "stateMutability": "view",
      "type": "function"
    },
    {
      "inputs": [],
      "name": "owner",
      "outputs": [
        {
          "internalType": "address",
          "name": "",
          "type": "address"
        }
      ],
      "stateMutability": "view",
      "type": "function"
    },
    {
      "inputs": [
        {
          "internalType": "address",
          "name": "owner",
          "type": "address"
        },
        {
          "internalType": "address",
          "name": "spender",
          "type": "address"
        },
        {
          "internalType": "uint256",
          "name": "value",
          "type": "uint256"
        },
        {
          "internalType": "uint256",
          "name": "deadline",
          "type": "uint256"
        },
        {
          "internalType": "uint8",
          "name": "v",
          "type": "uint8"
        },
        {
          "internalType": "bytes32",
          "name": "r",
          "type": "bytes32"
        },
        {
          "internalType": "bytes32",
          "name": "s",
          "type": "bytes32"
        }
      ],
      "name": "permit",
      "outputs": [],
      "stateMutability": "nonpayable",
      "type": "function"
    },
    {
      "inputs": [],
      "name": "renounceOwnership",
      "outputs": [],
      "stateMutability": "nonpayable",
      "type": "function"
    },
    {
      "inputs": [],
      "name": "symbol",
      "outputs": [
        {
          "internalType": "string",
          "name": "",
          "type": "string"
        }
      ],
      "stateMutability": "view",
      "type": "function"
    },
    {
      "inputs": [],
      "name": "totalSupply",
      "outputs": [
        {
          "internalType": "uint256",
          "name": "",
          "type": "uint256"
        }
      ],
      "stateMutability": "view",
      "type": "function"
    },
    {
      "inputs": [
        {
          "internalType": "address",
          "name": "to",
          "type": "address"
        },
        {
          "internalType": "uint256",
          "name": "value",
          "type": "uint256"
        }
      ],
      "name": "transfer",
      "outputs": [
        {
          "internalType": "bool",
          "name": "",
          "type": "bool"
        }
      ],
      "stateMutability": "nonpayable",
      "type": "function"
    },
    {
      "inputs": [
        {
          "internalType": "address",
          "name": "from",
          "type": "address"
        },
        {
          "internalType": "address",
          "name": "to",
          "type": "address"
        },
        {
          "internalType": "uint256",
          "name": "value",
          "type": "uint256"
        }
      ],
      "name": "transferFrom",
      "outputs": [
        {
          "internalType": "bool",
          "name": "",
          "type": "bool"
        }
      ],
      "stateMutability": "nonpayable",
      "type": "function"
    },
    {
      "inputs": [
        {
          "internalType": "address",
          "name": "newOwner",
          "type": "address"
        }
      ],
      "name": "transferOwnership",
      "outputs": [],
      "stateMutability": "nonpayable",
      "type": "function"
    }
  ],
  "bytecode": "0x6101606040523480156200001257600080fd5b50604051620018b7380380620018b783398101604081905262000035916200030e565b338280604051806040016040528060018152602001603160f81b8152508585816003908162000065919062000409565b50600462000074828262000409565b50620000869150839050600562000173565b610120526200009781600662000173565b61014052815160208084019190912060e052815190820120610100524660a0526200012560e05161010051604080517f8b73c3c69bb8fe3d512ecc4cf759cc79239f7b179b0ffacaa9a75d522b39400f60208201529081019290925260608201524660808201523060a082015260009060c00160405160208183030381529060405280519060200120905090565b60805250503060c052506001600160a01b0381166200015f57604051631e4fbdf760e01b8152600060048201526024015b60405180910390fd5b6200016a81620001ac565b5050506200052f565b600060208351101562000193576200018b83620001fe565b9050620001a6565b81620001a0848262000409565b5060ff90505b92915050565b600880546001600160a01b038381166001600160a01b0319831681179093556040519116919082907f8be0079c531659141344cd1fd0a4f28419497f9722a3daafe3b4186f6b6457e090600090a35050565b600080829050601f815111156200022c578260405163305a27a960e01b8152600401620001569190620004d5565b805162000239826200050a565b179392505050565b634e487b7160e01b600052604160045260246000fd5b60005b83811015620002745781810151838201526020016200025a565b50506000910152565b600082601f8301126200028f57600080fd5b81516001600160401b0380821115620002ac57620002ac62000241565b604051601f8301601f19908116603f01168101908282118183101715620002d757620002d762000241565b81604052838152866020858801011115620002f157600080fd5b6200030484602083016020890162000257565b9695505050505050565b600080604083850312156200032257600080fd5b82516001600160401b03808211156200033a57600080fd5b62000348868387016200027d565b935060208501519150808211156200035f57600080fd5b506200036e858286016200027d565b9150509250929050565b600181811c908216806200038d57607f821691505b602082108103620003ae57634e487b7160e01b600052602260045260246000fd5b50919050565b601f82111562000404576000816000526020600020601f850160051c81016020861015620003df5750805b601f850160051c820191505b818110156200040057828155600101620003eb565b5050505b505050565b81516001600160401b0381111562000425576200042562000241565b6200043d8162000436845462000378565b84620003b4565b602080601f8311600181146200047557600084156200045c5750858301515b600019600386901b1c1916600185901b17855562000400565b600085815260208120601f198616915b82811015620004a65788860151825594840194600190910190840162000485565b5085821015620004c55787850151600019600388901b60f8161c191681555b5050505050600190811b01905550565b6020815260008251806020840152620004f681604085016020870162000257565b601f01601f19169190910160400192915050565b80516020808301519190811015620003ae5760001960209190910360031b1b16919050565b60805160a05160c05160e05161010051610120516101405161132d6200058a6000396000610a14015260006109e7015260006108a901526000610881015260006107dc0152600061080601526000610830015261132d6000f3fe608060405234801561001057600080fd5b50600436106101365760003560e01c80637ecebe00116100b25780639dc29fac11610081578063d505accf11610066578063d505accf14610275578063dd62ed3e14610288578063f2fde38b146102c157600080fd5b80639dc29fac1461024f578063a9059cbb1461026257600080fd5b80637ecebe00146101fe57806384b0196e146102115780638da5cb5b1461022c57806395d89b411461024757600080fd5b8063313ce5671161010957806340c10f19116100ee57806340c10f19146101b857806370a08231146101cd578063715018a6146101f657600080fd5b8063313ce567146101a15780633644e515146101b057600080fd5b806306fdde031461013b578063095ea7b31461015957806318160ddd1461017c57806323b872dd1461018e575b600080fd5b6101436102d4565b6040516101509190611074565b60405180910390f35b61016c6101673660046110aa565b610366565b6040519015158152602001610150565b6002545b604051908152602001610150565b61016c61019c3660046110d4565b610380565b60405160128152602001610150565b6101806103a4565b6101cb6101c63660046110aa565b6103b3565b005b6101806101db366004611110565b6001600160a01b031660009081526020819052604090205490565b6101cb610441565b61018061020c366004611110565b610455565b610219610473565b604051610150979695949392919061112b565b6008546040516001600160a01b039091168152602001610150565b6101436104d5565b6101cb61025d3660046110aa565b6104e4565b61016c6102703660046110aa565b6104f6565b6101cb6102833660046111e0565b610504565b610180610296366004611253565b6001600160a01b03918216600090815260016020908152604080832093909416825291909152205490565b6101cb6102cf366004611110565b610670565b6060600380546102e390611286565b80601f016020809104026020016040519081016040528092919081815260200182805461030f90611286565b801561035c5780601f106103315761010080835404028352916020019161035c565b820191906000526020600020905b81548152906001019060200180831161033f57829003601f168201915b5050505050905090565b6000336103748185856106c7565b60019150505b92915050565b60003361038e8582856106d9565b610399858585610770565b506001949350505050565b60006103ae6107cf565b905090565b6103bb6108fa565b68056bc75e2d63100000811115610433576040517f08c379a000000000000000000000000000000000000000000000000000000000815260206004820152601c60248201527f616d6f756e74206d757374206265206c657373207468616e203130300000000060448201526064015b60405180910390fd5b61043d8282610940565b5050565b6104496108fa565b6104536000610976565b565b6001600160a01b03811660009081526007602052604081205461037a565b6000606080600080600060606104876109e0565b61048f610a0d565b604080516000808252602082019092527f0f000000000000000000000000000000000000000000000000000000000000009b939a50919850469750309650945092509050565b6060600480546102e390611286565b6104ec6108fa565b61043d8282610a3a565b600033610374818585610770565b83421115610541576040517f627913020000000000000000000000000000000000000000000000000000000081526004810185905260240161042a565b60007f6e71edae12b1b97f4d1f60370fef10105fa2faae0126114a169c64845d6126c988888861058e8c6001600160a01b0316600090815260076020526040902080546001810190915590565b6040805160208101969096526001600160a01b0394851690860152929091166060840152608083015260a082015260c0810186905260e00160405160208183030381529060405280519060200120905060006105e982610a70565b905060006105f982878787610ab8565b9050896001600160a01b0316816001600160a01b031614610659576040517f4b800e460000000000000000000000000000000000000000000000000000000081526001600160a01b0380831660048301528b16602482015260440161042a565b6106648a8a8a6106c7565b50505050505050505050565b6106786108fa565b6001600160a01b0381166106bb576040517f1e4fbdf70000000000000000000000000000000000000000000000000000000081526000600482015260240161042a565b6106c481610976565b50565b6106d48383836001610ae6565b505050565b6001600160a01b03838116600090815260016020908152604080832093861683529290522054600019811461076a578181101561075b576040517ffb8f41b20000000000000000000000000000000000000000000000000000000081526001600160a01b0384166004820152602481018290526044810183905260640161042a565b61076a84848484036000610ae6565b50505050565b6001600160a01b03831661079a57604051634b637e8f60e11b81526000600482015260240161042a565b6001600160a01b0382166107c45760405163ec442f0560e01b81526000600482015260240161042a565b6106d4838383610bed565b6000306001600160a01b037f00000000000000000000000000000000000000000000000000000000000000001614801561082857507f000000000000000000000000000000000000000000000000000000000000000046145b1561085257507f000000000000000000000000000000000000000000000000000000000000000090565b6103ae604080517f8b73c3c69bb8fe3d512ecc4cf759cc79239f7b179b0ffacaa9a75d522b39400f60208201527f0000000000000000000000000000000000000000000000000000000000000000918101919091527f000000000000000000000000000000000000000000000000000000000000000060608201524660808201523060a082015260009060c00160405160208183030381529060405280519060200120905090565b6008546001600160a01b03163314610453576040517f118cdaa700000000000000000000000000000000000000000000000000000000815233600482015260240161042a565b6001600160a01b03821661096a5760405163ec442f0560e01b81526000600482015260240161042a565b61043d60008383610bed565b600880546001600160a01b038381167fffffffffffffffffffffffff0000000000000000000000000000000000000000831681179093556040519116919082907f8be0079c531659141344cd1fd0a4f28419497f9722a3daafe3b4186f6b6457e090600090a35050565b60606103ae7f00000000000000000000000000000000000000000000000000000000000000006005610d30565b60606103ae7f00000000000000000000000000000000000000000000000000000000000000006006610d30565b6001600160a01b038216610a6457604051634b637e8f60e11b81526000600482015260240161042a565b61043d82600083610bed565b600061037a610a7d6107cf565b836040517f19010000000000000000000000000000000000000000000000000000000000008152600281019290925260228201526042902090565b600080600080610aca88888888610ddb565b925092509250610ada8282610eaa565b50909695505050505050565b6001600160a01b038416610b29576040517fe602df050000000000000000000000000000000000000000000000000000000081526000600482015260240161042a565b6001600160a01b038316610b6c576040517f94280d620000000000000000000000000000000000000000000000000000000081526000600482015260240161042a565b6001600160a01b038085166000908152600160209081526040808320938716835292905220829055801561076a57826001600160a01b0316846001600160a01b03167f8c5be1e5ebec7d5bd14f71427d1e84f3dd0314c0f7b2291e5b200ac8c7c3b92584604051610bdf91815260200190565b60405180910390a350505050565b6001600160a01b038316610c18578060026000828254610c0d91906112c0565b90915550610ca39050565b6001600160a01b03831660009081526020819052604090205481811015610c84576040517fe450d38c0000000000000000000000000000000000000000000000000000000081526001600160a01b0385166004820152602481018290526044810183905260640161042a565b6001600160a01b03841660009081526020819052604090209082900390555b6001600160a01b038216610cbf57600280548290039055610cde565b6001600160a01b03821660009081526020819052604090208054820190555b816001600160a01b0316836001600160a01b03167fddf252ad1be2c89b69c2b068fc378daa952ba7f163c4a11628f55a4df523b3ef83604051610d2391815260200190565b60405180910390a3505050565b606060ff8314610d4a57610d4383610fae565b905061037a565b818054610d5690611286565b80601f0160208091040260200160405190810160405280929190818152602001828054610d8290611286565b8015610dcf5780601f10610da457610100808354040283529160200191610dcf565b820191906000526020600020905b815481529060010190602001808311610db257829003601f168201915b5050505050905061037a565b600080807f7fffffffffffffffffffffffffffffff5d576e7357a4501ddfe92f46681b20a0841115610e165750600091506003905082610ea0565b604080516000808252602082018084528a905260ff891692820192909252606081018790526080810186905260019060a0016020604051602081039080840390855afa158015610e6a573d6000803e3d6000fd5b5050604051601f1901519150506001600160a01b038116610e9657506000925060019150829050610ea0565b9250600091508190505b9450945094915050565b6000826003811115610ebe57610ebe6112e1565b03610ec7575050565b6001826003811115610edb57610edb6112e1565b03610f12576040517ff645eedf00000000000000000000000000000000000000000000000000000000815260040160405180910390fd5b6002826003811115610f2657610f266112e1565b03610f60576040517ffce698f70000000000000000000000000000000000000000000000000000000081526004810182905260240161042a565b6003826003811115610f7457610f746112e1565b0361043d576040517fd78bce0c0000000000000000000000000000000000000000000000000000000081526004810182905260240161042a565b60606000610fbb83610fed565b604080516020808252818301909252919250600091906020820181803683375050509182525060208101929092525090565b600060ff8216601f81111561037a576040517fb3512b0c00000000000000000000000000000000000000000000000000000000815260040160405180910390fd5b6000815180845260005b8181101561105457602081850181015186830182015201611038565b506000602082860101526020601f19601f83011685010191505092915050565b602081526000611087602083018461102e565b9392505050565b80356001600160a01b03811681146110a557600080fd5b919050565b600080604083850312156110bd57600080fd5b6110c68361108e565b946020939093013593505050565b6000806000606084860312156110e957600080fd5b6110f28461108e565b92506111006020850161108e565b9150604084013590509250925092565b60006020828403121561112257600080fd5b6110878261108e565b7fff00000000000000000000000000000000000000000000000000000000000000881681526000602060e0602084015261116860e084018a61102e565b838103604085015261117a818a61102e565b606085018990526001600160a01b038816608086015260a0850187905284810360c08601528551808252602080880193509091019060005b818110156111ce578351835292840192918401916001016111b2565b50909c9b505050505050505050505050565b600080600080600080600060e0888a0312156111fb57600080fd5b6112048861108e565b96506112126020890161108e565b95506040880135945060608801359350608088013560ff8116811461123657600080fd5b9699959850939692959460a0840135945060c09093013592915050565b6000806040838503121561126657600080fd5b61126f8361108e565b915061127d6020840161108e565b90509250929050565b600181811c9082168061129a57607f821691505b6020821081036112ba57634e487b7160e01b600052602260045260246000fd5b50919050565b8082018082111561037a57634e487b7160e01b600052601160045260246000fd5b634e487b7160e01b600052602160045260246000fdfea2646970667358221220c62e0511a12408f56016d955644d836fe3e85f96f929baabdaa2f0825edff03f64736f6c63430008180033",
  "linkReferences": {},
  "deployedLinkReferences": {}
}