{
  "_format": "hh-sol-artifact-1",
  "contractName": "TestDeployment",
  "sourceName": "contracts/TestDeployment.sol",
  "abi": [
    {
      "inputs": [],
      "name": "message",
      "outputs": [
        {
          "internalType": "string",
          "name": "",
          "type": "string"
        }
      ],
      "stateMutability": "view",
      "type": "function"
    }
  ],
  "bytecode": "0x60c0604052601b60809081527f457365204d6f6e6461792063726561746564207468697320617421000000000060a05260009061003c90826100f0565b5034801561004957600080fd5b506101af565b634e487b7160e01b600052604160045260246000fd5b600181811c9082168061007957607f821691505b60208210810361009957634e487b7160e01b600052602260045260246000fd5b50919050565b601f8211156100eb576000816000526020600020601f850160051c810160208610156100c85750805b601f850160051c820191505b818110156100e7578281556001016100d4565b5050505b505050565b81516001600160401b038111156101095761010961004f565b61011d816101178454610065565b8461009f565b602080601f831160018114610152576000841561013a5750858301515b600019600386901b1c1916600185901b1785556100e7565b600085815260208120601f198616915b8281101561018157888601518255948401946001909101908401610162565b508582101561019f5787850151600019600388901b60f8161c191681555b5050505050600190811b01905550565b6101b4806101be6000396000f3fe608060405234801561001057600080fd5b506004361061002b5760003560e01c8063e21f37ce14610030575b600080fd5b61003861004e565b60405161004591906100dc565b60405180910390f35b6000805461005b9061012b565b80601f01602080910402602001604051908101604052809291908181526020018280546100879061012b565b80156100d45780601f106100a9576101008083540402835291602001916100d4565b820191906000526020600020905b8154815290600101906020018083116100b757829003601f168201915b505050505081565b60006020808352835180602085015260005b8181101561010a578581018301518582016040015282016100ee565b506000604082860101526040601f19601f8301168501019250505092915050565b600181811c9082168061013f57607f821691505b602082108103610178577f4e487b7100000000000000000000000000000000000000000000000000000000600052602260045260246000fd5b5091905056fea2646970667358221220828e71d0465fa75a7ac9eb1744e240dd392c9ad185d50668c80ae0942501aa8164736f6c63430008180033",
  "linkReferences": {},
  "deployedLinkReferences": {}
}